{"abi":[{"type":"constructor","inputs":[{"name":"tokenAddresses","type":"address[]","internalType":"address[]"},{"name":"priceFeedAddresses","type":"address[]","internalType":"address[]"},{"name":"dscAddress","type":"address","internalType":"address"}],"stateMutability":"nonpayable"},{"type":"function","name":"RedeemCollateralForDsc","inputs":[{"name":"tokenCollateralAddress","type":"address","internalType":"address"},{"name":"amountCollateral","type":"uint256","internalType":"uint256"},{"name":"amountDscToBurn","type":"uint256","internalType":"uint256"}],"outputs":[],"stateMutability":"nonpayable"},{"type":"function","name":"burnDsc","inputs":[{"name":"amountDscToBurn","type":"uint256","internalType":"uint256"}],"outputs":[],"stateMutability":"nonpayable"},{"type":"function","name":"calculateHealthFactor","inputs":[{"name":"totalDscMinted","type":"uint256","internalType":"uint256"},{"name":"collateralValueInUsd","type":"uint256","internalType":"uint256"}],"outputs":[{"name":"","type":"uint256","internalType":"uint256"}],"stateMutability":"pure"},{"type":"function","name":"depositCollateral","inputs":[{"name":"collateralTokenAddress","type":"address","internalType":"address"},{"name":"collateralamount","type":"uint256","internalType":"uint256"}],"outputs":[],"stateMutability":"nonpayable"},{"type":"function","name":"depositCollateralAndMintDsc","inputs":[{"name":"collateralTokenAddress","type":"address","internalType":"address"},{"name":"amountCollateral","type":"uint256","internalType":"uint256"},{"name":"amountDscToMint","type":"uint256","internalType":"uint256"}],"outputs":[],"stateMutability":"nonpayable"},{"type":"function","name":"getAccountCollateralValueInUsd","inputs":[{"name":"user","type":"address","internalType":"address"}],"outputs":[{"name":"totalCollateralValueInUSD","type":"uint256","internalType":"uint256"}],"stateMutability":"view"},{"type":"function","name":"getAccountInformation","inputs":[{"name":"user","type":"address","internalType":"address"}],"outputs":[{"name":"totalDSCMinted","type":"uint256","internalType":"uint256"},{"name":"collateralValueInUsd","type":"uint256","internalType":"uint256"}],"stateMutability":"view"},{"type":"function","name":"getCollateralBalanceOfUser","inputs":[{"name":"user","type":"address","internalType":"address"},{"name":"token","type":"address","internalType":"address"}],"outputs":[{"name":"","type":"uint256","internalType":"uint256"}],"stateMutability":"view"},{"type":"function","name":"getCollateralTokenPriceFeed","inputs":[{"name":"token","type":"address","internalType":"address"}],"outputs":[{"name":"","type":"address","internalType":"address"}],"stateMutability":"view"},{"type":"function","name":"getCollateralTokens","inputs":[],"outputs":[{"name":"","type":"address[]","internalType":"address[]"}],"stateMutability":"view"},{"type":"function","name":"getHealthFactor","inputs":[{"name":"user","type":"address","internalType":"address"}],"outputs":[{"name":"","type":"uint256","internalType":"uint256"}],"stateMutability":"view"},{"type":"function","name":"getTokenAmountFromUsd","inputs":[{"name":"token","type":"address","internalType":"address"},{"name":"usdAmountInWei","type":"uint256","internalType":"uint256"}],"outputs":[{"name":"","type":"uint256","internalType":"uint256"}],"stateMutability":"view"},{"type":"function","name":"getTokenPriceFeed","inputs":[{"name":"token","type":"address","internalType":"address"}],"outputs":[{"name":"","type":"int256","internalType":"int256"}],"stateMutability":"view"},{"type":"function","name":"getUsdValue","inputs":[{"name":"token","type":"address","internalType":"address"},{"name":"amount","type":"uint256","internalType":"uint256"}],"outputs":[{"name":"","type":"uint256","internalType":"uint256"}],"stateMutability":"view"},{"type":"function","name":"liquidate","inputs":[{"name":"collateralAddress","type":"address","internalType":"address"},{"name":"user","type":"address","internalType":"address"},{"name":"debtToRecover","type":"uint256","internalType":"uint256"}],"outputs":[],"stateMutability":"nonpayable"},{"type":"function","name":"mintDSC","inputs":[{"name":"amountDscToMint","type":"uint256","internalType":"uint256"}],"outputs":[],"stateMutability":"nonpayable"},{"type":"function","name":"redeemCollateral","inputs":[{"name":"tokenCollateralAddress","type":"address","internalType":"address"},{"name":"amountCollateral","type":"uint256","internalType":"uint256"}],"outputs":[],"stateMutability":"nonpayable"},{"type":"function","name":"s_DSCMinted","inputs":[{"name":"user","type":"address","internalType":"address"}],"outputs":[{"name":"amountDSCMinted","type":"uint256","internalType":"uint256"}],"stateMutability":"view"},{"type":"function","name":"s_collateralDeposited","inputs":[{"name":"user","type":"address","internalType":"address"},{"name":"token","type":"address","internalType":"address"}],"outputs":[{"name":"amount","type":"uint256","internalType":"uint256"}],"stateMutability":"view"},{"type":"event","name":"CollateralDeposited","inputs":[{"name":"user","type":"address","indexed":true,"internalType":"address"},{"name":"token","type":"address","indexed":true,"internalType":"address"},{"name":"amount","type":"uint256","indexed":false,"internalType":"uint256"}],"anonymous":false},{"type":"event","name":"CollateralRedeem","inputs":[{"name":"redeemFrom","type":"address","indexed":true,"internalType":"address"},{"name":"redeemTo","type":"address","indexed":true,"internalType":"address"},{"name":"token","type":"address","indexed":true,"internalType":"address"},{"name":"amount","type":"uint256","indexed":false,"internalType":"uint256"}],"anonymous":false},{"type":"error","name":"AddressEmptyCode","inputs":[{"name":"target","type":"address","internalType":"address"}]},{"type":"error","name":"AddressInsufficientBalance","inputs":[{"name":"account","type":"address","internalType":"address"}]},{"type":"error","name":"DSCEngine_HealthFactorOk","inputs":[]},{"type":"error","name":"DSCEngine_MintFailed","inputs":[]},{"type":"error","name":"DSCEngine__CollateralLstMinOutPutTokens","inputs":[]},{"type":"error","name":"DSCEngine__CollateralTokenAlreadyRegistered","inputs":[]},{"type":"error","name":"DSCEngine__HealthFactorBelowMin","inputs":[{"name":"HealthFactor","type":"uint256","internalType":"uint256"}]},{"type":"error","name":"DSCEngine__HealthFactorNotImproved","inputs":[]},{"type":"error","name":"DSCEngine__NeedsMoreThanZero","inputs":[]},{"type":"error","name":"DSCEngine__TokenAddressAndPriceFeedLengthMustMatch","inputs":[]},{"type":"error","name":"DSCEngine__TokenNotAllowed","inputs":[]},{"type":"error","name":"FailedInnerCall","inputs":[]},{"type":"error","name":"ReentrancyGuardReentrantCall","inputs":[]},{"type":"error","name":"SafeERC20FailedOperation","inputs":[{"name":"token","type":"address","internalType":"address"}]}],"bytecode":{"object":"0x60a06040523480156200001157600080fd5b5060405162001582380380620015828339810160408190526200003491620002ac565b600160005581518351146200005c5760405163f2c30fb960e01b815260040160405180910390fd5b60005b8351811015620001b35760006001600160a01b0316600160008684815181106200008d576200008d62000328565b6020908102919091018101516001600160a01b03908116835290820192909252604001600020541614620000d45760405163421424bf60e01b815260040160405180910390fd5b828181518110620000e957620000e962000328565b6020026020010151600160008684815181106200010a576200010a62000328565b60200260200101516001600160a01b03166001600160a01b0316815260200190815260200160002060006101000a8154816001600160a01b0302191690836001600160a01b0316021790555060048482815181106200016d576200016d62000328565b60209081029190910181015182546001808201855560009485529290932090920180546001600160a01b0319166001600160a01b0390931692909217909155016200005f565b506001600160a01b0316608052506200033e9050565b634e487b7160e01b600052604160045260246000fd5b80516001600160a01b0381168114620001f757600080fd5b919050565b600082601f8301126200020e57600080fd5b815160206001600160401b03808311156200022d576200022d620001c9565b8260051b604051601f19603f83011681018181108482111715620002555762000255620001c9565b60405293845260208187018101949081019250878511156200027657600080fd5b6020870191505b84821015620002a1576200029182620001df565b835291830191908301906200027d565b979650505050505050565b600080600060608486031215620002c257600080fd5b83516001600160401b0380821115620002da57600080fd5b620002e887838801620001fc565b94506020860151915080821115620002ff57600080fd5b506200030e86828701620001fc565b9250506200031f60408501620001df565b90509250925092565b634e487b7160e01b600052603260045260246000fd5b60805161121a620003686000396000818161096a01528181610bed0152610c2b015261121a6000f3fe608060405234801561001057600080fd5b50600436106101215760003560e01c8063a5d5db0c116100ad578063d139137711610071578063d1391377146102b3578063dbcdea6d146102d3578063e90db8a3146102fe578063f687660814610311578063fe6bcd7c1461032457600080fd5b8063a5d5db0c14610252578063afea2e4814610265578063b58eb63f14610278578063c660d1121461028d578063d0bb6c6e146102a057600080fd5b806331e92b83116100f457806331e92b83146101b8578063422c0163146101f1578063545af4fe146102045780637be564fc146102175780639acd81b31461023f57600080fd5b806301f72884146101265780631c08adda1461014c57806326c0130314610190578063274a1a00146101a5575b600080fd5b610139610134366004610f13565b610337565b6040519081526020015b60405180910390f35b61017861015a366004610f51565b6001600160a01b039081166000908152600160205260409020541690565b6040516001600160a01b039091168152602001610143565b6101a361019e366004610f6c565b61034c565b005b6101396101b3366004610f51565b610482565b6101396101c6366004610fa8565b6001600160a01b03918216600090815260026020908152604080832093909416825291909152205490565b6101a36101ff366004610fdb565b610523565b610139610212366004610f51565b61053f565b61022a610225366004610f51565b6105bc565b60408051928352602083019190915201610143565b6101a361024d36600461100e565b6105d1565b6101a361026036600461100e565b610611565b61013961027336600461100e565b61070c565b6102806107dc565b6040516101439190611038565b61013961029b36600461100e565b61083e565b6101a36102ae366004611085565b6108fd565b6101396102c1366004610f51565b60036020526000908152604090205481565b6101396102e1366004610fa8565b600260209081526000928352604080842090915290825290205481565b6101a361030c366004610fdb565b610a18565b6101a361031f366004611085565b610a2b565b610139610332366004610f51565b610a58565b60006103438383610a7c565b90505b92915050565b808060000361036e5760405163cb1d3f7d60e01b815260040160405180910390fd5b610376610ac1565b600061038184610aeb565b9050670de0b6b3a764000081106103ab5760405163356636af60e01b815260040160405180910390fd5b60006103b7868561070c565b9050600060646103c8600a846110b4565b6103d291906110cb565b905060006103e082846110ed565b6001600160a01b038089166000908152600260209081526040808320938d1683529290522054909150808410801561041757508082115b15610420578091505b61042c88338b85610b09565b610437883389610bb2565b600061044289610c94565b9050670de0b6b3a7640000811161046c576040516303e141b160e51b815260040160405180910390fd5b50505050505061047c6001600055565b50505050565b6001600160a01b038181166000908152600160205260408082205490516315d0e4b560e11b81529216600483018190529091829073__$5e0daf0e2ae0720e679e87994f11e5b624$__90632ba1c96a9060240160a060405180830381865af41580156104f2573d6000803e3d6000fd5b505050506040513d601f19601f82011682018060405250810190610516919061111a565b5091979650505050505050565b61052e333383610bb2565b61053a33338585610b09565b505050565b6000805b6004548110156105b6576000600482815481106105625761056261116a565b60009182526020808320909101546001600160a01b038781168452600283526040808520919092168085529252909120549091506105a0828261083e565b6105aa90856110ed565b93505050600101610543565b50919050565b6000806105c883610ce5565b91509150915091565b80806000036105f35760405163cb1d3f7d60e01b815260040160405180910390fd5b6105fb610ac1565b61060733338585610b09565b61053a6001600055565b80806000036106335760405163cb1d3f7d60e01b815260040160405180910390fd5b6001600160a01b0380841660009081526001602052604090205484911661066d576040516303a1667160e01b815260040160405180910390fd5b610675610ac1565b3360009081526002602090815260408083206001600160a01b0388168452909152812080548592906106a89084906110ed565b90915550506040518381526001600160a01b0385169033907ff1c0dd7e9b98bbff859029005ef89b127af049cd18df1a8d79f0b7e019911e569060200160405180910390a36107026001600160a01b038516333086610d0f565b61047c6001600055565b6001600160a01b038281166000908152600160205260408082205490516315d0e4b560e11b81529216600483018190529091829073__$5e0daf0e2ae0720e679e87994f11e5b624$__90632ba1c96a9060240160a060405180830381865af415801561077c573d6000803e3d6000fd5b505050506040513d601f19601f820116820180604052508101906107a0919061111a565b5050509150506402540be400816107b791906110b4565b6107c9670de0b6b3a7640000866110b4565b6107d391906110cb565b95945050505050565b6060600480548060200260200160405190810160405280929190818152602001828054801561083457602002820191906000526020600020905b81546001600160a01b03168152600190910190602001808311610816575b5050505050905090565b6001600160a01b038281166000908152600160205260408082205490516315d0e4b560e11b81529216600483018190529091829073__$5e0daf0e2ae0720e679e87994f11e5b624$__90632ba1c96a9060240160a060405180830381865af41580156108ae573d6000803e3d6000fd5b505050506040513d601f19601f820116820180604052508101906108d2919061111a565b505050915050670de0b6b3a7640000846402540be400836108f391906110b4565b6107c991906110b4565b808060000361091f5760405163cb1d3f7d60e01b815260040160405180910390fd5b610927610ac1565b33600090815260036020526040812080548492906109469084906110ed565b90915550506040516340c10f1960e01b8152336004820152602481018390526000907f00000000000000000000000000000000000000000000000000000000000000006001600160a01b0316906340c10f19906044016020604051808303816000875af11580156109bb573d6000803e3d6000fd5b505050506040513d601f19601f820116820180604052508101906109df9190611180565b9050806109ff57604051636961c56f60e11b815260040160405180910390fd5b610a0833610c94565b5050610a146001600055565b5050565b610a228383610611565b61053a816108fd565b8080600003610a4d5760405163cb1d3f7d60e01b815260040160405180910390fd5b610a14333384610bb2565b6000806000610a6684610ce5565b91509150610a748282610a7c565b949350505050565b600082600003610a8f5750600019610346565b610a9a8360646110b4565b610aa56032846110b4565b610ab790670de0b6b3a76400006110b4565b61034391906110cb565b600260005403610ae457604051633ee5aeb560e01b815260040160405180910390fd5b6002600055565b6000806000610af984610ce5565b9150915060006107d38383610a7c565b6001600160a01b03808516600090815260026020908152604080832093861683529290529081208054839290610b409084906111a2565b92505081905550816001600160a01b0316836001600160a01b0316856001600160a01b03167f7ff0af10d907e156b68754fc8b27cc123872505141704734b0e2d1a3b0d96c0784604051610b9691815260200190565b60405180910390a461047c6001600160a01b0383168483610d76565b6001600160a01b03831660009081526003602052604081208054839290610bda9084906111a2565b90915550610c1590506001600160a01b037f000000000000000000000000000000000000000000000000000000000000000016833084610d0f565b604051630852cd8d60e31b8152600481018290527f00000000000000000000000000000000000000000000000000000000000000006001600160a01b0316906342966c6890602401600060405180830381600087803b158015610c7757600080fd5b505af1158015610c8b573d6000803e3d6000fd5b50505050505050565b6000806000610ca284610ce5565b915091506000610cb28383610a7c565b9050670de0b6b3a7640000811015610a745760405163757b40d360e11b8152600481018290526024015b60405180910390fd5b6001600160a01b03811660009081526003602052604081205490610d088361053f565b9050915091565b6040516001600160a01b03848116602483015283811660448301526064820183905261047c9186918216906323b872dd906084015b604051602081830303815290604052915060e01b6020820180516001600160e01b038381831617835250505050610da7565b6040516001600160a01b0383811660248301526044820183905261053a91859182169063a9059cbb90606401610d44565b6000610dbc6001600160a01b03841683610e0a565b90508051600014158015610de1575080806020019051810190610ddf9190611180565b155b1561053a57604051635274afe760e01b81526001600160a01b0384166004820152602401610cdc565b60606103438383600084600080856001600160a01b03168486604051610e3091906111b5565b60006040518083038185875af1925050503d8060008114610e6d576040519150601f19603f3d011682016040523d82523d6000602084013e610e72565b606091505b5091509150610e82868383610e8e565b925050505b9392505050565b606082610ea357610e9e82610eea565b610e87565b8151158015610eba57506001600160a01b0384163b155b15610ee357604051639996b31560e01b81526001600160a01b0385166004820152602401610cdc565b5080610e87565b805115610efa5780518082602001fd5b604051630a12f52160e11b815260040160405180910390fd5b60008060408385031215610f2657600080fd5b50508035926020909101359150565b80356001600160a01b0381168114610f4c57600080fd5b919050565b600060208284031215610f6357600080fd5b61034382610f35565b600080600060608486031215610f8157600080fd5b610f8a84610f35565b9250610f9860208501610f35565b9150604084013590509250925092565b60008060408385031215610fbb57600080fd5b610fc483610f35565b9150610fd260208401610f35565b90509250929050565b600080600060608486031215610ff057600080fd5b610ff984610f35565b95602085013595506040909401359392505050565b6000806040838503121561102157600080fd5b61102a83610f35565b946020939093013593505050565b6020808252825182820181905260009190848201906040850190845b818110156110795783516001600160a01b031683529284019291840191600101611054565b50909695505050505050565b60006020828403121561109757600080fd5b5035919050565b634e487b7160e01b600052601160045260246000fd5b80820281158282048414176103465761034661109e565b6000826110e857634e487b7160e01b600052601260045260246000fd5b500490565b808201808211156103465761034661109e565b805169ffffffffffffffffffff81168114610f4c57600080fd5b600080600080600060a0868803121561113257600080fd5b61113b86611100565b945060208601519350604086015192506060860151915061115e60808701611100565b90509295509295909350565b634e487b7160e01b600052603260045260246000fd5b60006020828403121561119257600080fd5b81518015158114610e8757600080fd5b818103818111156103465761034661109e565b6000825160005b818110156111d657602081860181015185830152016111bc565b50600092019182525091905056fea2646970667358221220e7f58cd5a69bd2d347b7dee9f4c5d5e990eeacc52fb5be457a7718c52de892d264736f6c63430008160033","linkReferences":{"src/Lib/OracleLib.sol":{"OracleLib":[{"start":2080,"length":20},{"start":2730,"length":20},{"start":3036,"length":20}]}}},"methodIdentifiers":{"RedeemCollateralForDsc(address,uint256,uint256)":"422c0163","burnDsc(uint256)":"f6876608","calculateHealthFactor(uint256,uint256)":"01f72884","depositCollateral(address,uint256)":"a5d5db0c","depositCollateralAndMintDsc(address,uint256,uint256)":"e90db8a3","getAccountCollateralValueInUsd(address)":"545af4fe","getAccountInformation(address)":"7be564fc","getCollateralBalanceOfUser(address,address)":"31e92b83","getCollateralTokenPriceFeed(address)":"1c08adda","getCollateralTokens()":"b58eb63f","getHealthFactor(address)":"fe6bcd7c","getTokenAmountFromUsd(address,uint256)":"afea2e48","getTokenPriceFeed(address)":"274a1a00","getUsdValue(address,uint256)":"c660d112","liquidate(address,address,uint256)":"26c01303","mintDSC(uint256)":"d0bb6c6e","redeemCollateral(address,uint256)":"9acd81b3","s_DSCMinted(address)":"d1391377","s_collateralDeposited(address,address)":"dbcdea6d"},"id":39}